S01000004E656F706978656C2E73726563D0
S11300001FC100002FC100002DC100002BC1000042
S113001029C1000027C1000025C1000023C1000040
S113002021C100001FC100001DC100001BC1000050
S113003019C1000017C1000015C1000013C1000060
S11300409BC300000FC100000DC100000BC10000E4
S113005009C1000007C1000005C1000003C1000080
S113006001C10000FFC00000D0C20000FBC00000BE
S1130070F9C00000F7C00000F5C00000F3C00000A4
S1130080F1C00000EFC00000EDC00000C801D601BF
S11300904502450245024502450245024502450224
S11300A0DE01E101EB01F301030245020D0214023A
S11300B0450245021E02220226022A022E023202B2
S11300C036023A0245023E02450245024502450215
S11300D045024502450245024502450245024502E4
S11300E045024502450245024502450245024502D4
S11300F04502C201830294029B0200030003000331
S1130100000300030003AA0200030003000300032A
S1130110B902C6020003DA0218091E096209600A5C
S11301209309600A600A600A600A600AA309D00998
S1130130C809D309E209E909AAAAAAAAAAAAAAAAE1
S1130140AAAAAAAAAAAAAAAAAAAAAAAAAAAAAAAA0B
S1130150AAAAAAAAAAAAAAAA44444444444444442B
S1130160444444444444444444444444444444444B
S113017044444444444444441010101010101010DB
S1130180101010101010101010101010101010106B
S113019010101010101010100001000100010001D7
S11301A00001000100010001000100010001000143
S11301B00001000100010001000001000000010035
S11301C00000010000000100000001000000010027
S11301D00000010000000100000000000100000018
S11301E00000000001000000000000000100000009
S11301F000000000010000000000000000000000FA
S113020001000000000000000000000000000000E9
S113021001000000000000000000000000000000D9
S113022000000000000000000100000000000000C9
S113023000000000000000008040201008040201BB
S113024011241FBECFEFD0E4DEBFCDBF20E4A0E079
S1130250B1E001C01D92AE3EB207E1F70E94150E57
S11302600C94B00FCDCECF93DF9310927A00E4E6D6
S1130270F0E08081816080838081846080838081DC
S1130280826080830FB6F894A8958091600088619D
S113029080936000109260000FBE80E090E00E94A6
S11302A0880FC82FD0E0DC2FCC27D0930D01C0934A
S11302B00C0181E090E00E94880FC82BCE010197C9
S11302C08E3F9F4F28F4D0930D01C0930C0111C0B1
S11302D080E094E090930D0180930C0164E080E051
S11302E090E00E94A20F60910C0181E090E00E94D6
S11302F0A20F20910C0130910D0140E050E060E02C
S11303007BE187EB90E00E94630F3093060120931A
S1130310050181E085BDEEE6F0E0808182608083A6
S113032082E090E00E94880F9DEF980F953708F0C7
S113033081E6880F8093BA00ECEBF0E080818F7D3A
S11303408083808185648083789410924F01109219
S1130350090110920801DF91CF910895CF93DF93A3
S1130360E0910E01E83C08F48DC08E2F90E0FC0172
S1130370E85CF109E433F10508F087C0EA5BFF4F5C
S11303800C947F0F80914F0180932F0181E07EC0F8
S113039084E090E00E94880FCFE2D1E0888385E07A
S11303A090E00E94880F898382E070C083E090E02F
S11303B00E94880F80932F0181E068C00E941C0E68
S11303C065C0EFE2F1E0108287EB81838BE18283E9
S11303D0138284E05BC0EFE2F1E08FE080838AEF78
S11303E0818382E053C02091080130910901EFE23A
S11303F0F1E08AEF9FE0821B930B90838AEF821BCC
S1130400818382E043C08091080190910901EFE269
S1130410F1E09083818382E039C0EFE2F1E0108261
S113042080E2818382E032C080910C0190910D01C1
S1130430EFE2F1E09083818382E028C010922F01E3
S113044081E024C010922F0181E020C010922F017E
S113045081E01CC010922F0181E018C010922F017E
S113046081E014C010922F0181E010C010922F017E
S113047081E00CC010922F0181E008C010922F017E
S113048081E004C00E941E0E01C080E0DF91CF9184
S11304900895CF93C091100184E090E00E94880FEA
S11304A0C8130BC0C091110185E090E00E94880F31
S11304B091E0C81390E0892F01C080E0CF910895A6
S11304C00F931F93CF93DF9380910A01882309F43C
S11304D097C020910F0130E090E002972817390768
S11304E009F08EC080910E01883C08F487C090E02A
S11304F0FC01E85CF109E231F10508F081C0E6583D
S1130500FF4F0C947F0FC5DF882309F479C0CEE038
S1130510D1E06C8184E090E00E94A20F6D8185E0BF
S113052090E00E94A20F6CC06091100183E090E003
S11305300E94A20F65C0ADDF882309F461C06091F9
S11305401201862F880F8093BA0082E090E00E9407
S1130550A20F56C09EDF882309F452C098E088E1B8
S11305600FB6F894A895809360000FBE9093600036
S1130570FFCFEEE0F1E0828190E0982F882723817D
S1130580822B90930901809308013AC082DF88236B
S1130590B9F1C6E0D0E000E010E16FEFCE010E94B7
S11305A0900F21960C171D07C1F7109209011092A4
S11305B0080126C0CEE0D1E01A81212F30E0322F8D
S11305C022278B81282B30930D0120930C0140E0CE
S11305D050E060E07BE187EB90E00E94630F309392
S11305E0060120930501612F80E090E00E94A20F94
S11305F06B8181E090E00E94A20F02C00E94200E55
S1130600DF91CF911F910F9108951F920F920FB612
S11306100F9211240BB60F922F933F934F935F9336
S11306206F937F938F939F93AF93BF93EF93FF93B6
S11306308091B900887F803A09F450C028F480364C
S113064041F0803861F04FC0883AF9F0883B11F1ED
S11306504AC085EC8093BC0010920A0147C0E09127
S11306600A0181E08E0F80930A019091BB00F0E0B3
S1130670E25FFE4F9083803220F485EC8093BC00CF
S113068035C085E88093BC0031C010922E0166DE2F
S11306908093040180910401811106C01092BB0073
S11306A085E88093BC0022C0E0912E0181E08E0F8A
S11306B080932E01F0E0E15DFE4F80818093BB00CA
S11306C090912E0180910401981720F485EC809379
S11306D0BC000CC085E88093BC0008C085EC809306
S11306E0BC00EEDE03C085EC8093BC00FF91EF916B
S11306F0BF91AF919F918F917F916F915F914F9136
S11307003F912F910F900BBE0F900FBE0F901F9033
S113071018958A5F9F4F0C94880F08958A5F9F4FA6
S11307200C94900F0895CF93C0910701CC2311F13D
S11307300E94220EE6E5F1E0828193818C0F911DE7
S113074093838283809107018C1B809307018081AE
S1130750918120910C0130910D012817390730F057
S11307600196909357018093560104C0109257014B
S113077010925601CF9108951F920F920FB60F92C7
S113078011248F939F93F89497B580910501890F55
S113079087BD809107018F5F8093070178949F91B3
S11307A08F910F900FBE0F901F9018952F923F922C
S11307B04F925F926F927F928F929F92AF92BF926D
S11307C0CF92DF92EF92FF920F931F93CF93DF9319
S11307D000D000D000D0CDB7DEB710929D16109295
S11307E05A011092BC2B80E190E090937A1680938A
S11307F079169093090180930801EDECFBE21182D4
S1130800108212820DEB1BE22DE836E1E12CF12C73
S11308101A821982A12CB12C66246394712C3C8316
S11308202B83680101C054015E2C89819A8171DF98
S11308308B809C80D4011C9211968C9389819A811F
S11308400196E981FA813296FA83E98362DFAB810A
S1130850BC812D913C911197F901E82BCF018B308C
S1130860F7E09F0718F48D939C9304C0AB81BC817F
S11308701D921C92F601A192B1926F01D4016D9167
S11308807C91EB81FC813296FC83EB834B018A0CD7
S11308909B1C930102C0220F331F5A94E2F7C50137
S11308A0880F991F8A0D9B1D8256994E3AB1322B9F
S11308B03AB93BB1522F509553234BB1422BBFB69B
S11308C0F8946115710509F445C0ADECBBE2AC9038
S11308D0DB01AA0FBB1FA60FB71FA80FB91F20E08B
S11308E030E00F2EF3E05F2EF02D5A0C1B01FC8339
S11308F0EB831FC0F11103C0D8016C9101C06E2FAE
S11309000F5F1F4F78E04BB900C067FF5BB9660FFC
S1130910000000C000C05BB97A95A9F7EF5F5E12D2
S1130920E9CFAD81BE8103962F5F3F4FA817B9076A
S113093081F0F901EE0FFF1FE20FF31FE35AFE4FA0
S1130940F081F5FBFF27F0F9EA2D8C01BE83AD831E
S1130950D1CFB10180E090E00E94500E20E030E061
S113096044EB53E40E94B60E0E94240E1B012C019A
S1130970209105013091060140E050E00E94410FB2
S113098080910701280F20930701A8E8B0E08D911A
S11309909C911197280E391E11963C922E92BFBE3F
S11309A0B8ECBA95F1F7EFEFEE1AFE0A29813A8115
S11309B02031310509F037CF26960FB6F894DEBF03
S11309C00FBECDBFDF91CF911F910F91FF90EF909C
S11309D0DF90CF90BF90AF909F908F907F906F905B
S11309E05F904F903F902F900895EF92FF920F9356
S11309F01F93CF93DF93FC01A081B181CD01880FB8
S1130A00991FA80FB91FA35ABE4F8C91877F8C934F
S1130A10D8018C91882309F4FBC080819181DC0189
S1130A20AA0FBB1F8A0F9B1FDC01A55ABE4F11964C
S1130A301C9280819181DC01AA0FBB1FA80FB91FF2
S1130A40A256B94E1196CC91DB01DC91DC17F8F477
S1130A50DC01AA0FBB1F8A0F9B1FDC01A35ABE4FE8
S1130A608C918E7F8C9380819181DC01AA0FBB1FB6
S1130A708A0F9B1FEC01C053D44D8256994EDC0162
S1130A8011968C91DB019C91891B89831EC0DC012A
S1130A90AA0FBB1F8A0F9B1FDC01A35ABE4F8C9168
S1130AA081608C9380819181DC01AA0FBB1F8A0F26
S1130AB09B1FEC01C053D44D8256994EDB016C91BF
S1130AC0DC0111968C91681B698380819181DC0122
S1130AD0AA0FBB1FA80FB91FA256B94E7C91EA01F9
S1130AE068816717F0F4DC01AA0FBB1F8A0F9B1FF4
S1130AF0DC01A35ABE4F8C918D7F8C9380819181B0
S1130B00BC01660F771F860F971FEC01C053D44DAD
S1130B108256994EDC018C91DA019C91891B888361
S1130B201DC0DC01AA0FBB1F8A0F9B1FDC01A35A47
S1130B30BE4F8C9182608C9380819181BC01660F41
S1130B40771F860F971FEC01C053D44D8256994EE0
S1130B50DA014C91DC018C91481B4883808191819E
S1130B60DC01AA0FBB1FA80FB91FA256B94E1296DB
S1130B705C91E90148814517F8F4DC01AA0FBB1F19
S1130B808A0F9B1FDC01A35ABE4F8C918B7F8C93E1
S1130B9080819181AC01440F551F840F951FEC0196
S1130BA0C053D44D8256994EDC0112968C91D901D2
S1130BB09C91891B8A831EC0DC01AA0FBB1F8A0F6C
S1130BC09B1FDC01A35ABE4F8C9184608C9380815F
S1130BD09181AC01440F551F840F951FEC01C05344
S1130BE0D44D8256994ED9012C91DC0112968C91E8
S1130BF0281B2A8380819181DC01AA0FBB1F8A0FE5
S1130C009B1FDC01A55ABE4F81E011968C9329C02D
S1130C1080819181EB016881DC01AA0FBB1F8A0FDF
S1130C209B1FDC01A256B94E11966C938081918171
S1130C30DA014C91DC01AA0FBB1F8A0F9B1FDC0158
S1130C40A256B94E4C9380819181E9012881DC013F
S1130C50AA0FBB1F8A0F9B1FDC01A256B94E129626
S1130C602C93A081B181CD01880F991FA80FB91FC2
S1130C70A35ABE4F8C918F7E8C93D7018C91811196
S1130C800CC0A081B181CD01880F991FA80FB91F95
S1130C90A35ABE4F8C918F7D8C93A081B181CD01DD
S1130CA0880F991FA80FB91FA55ABE4FE801888164
S1130CB0982F9F708C91807F892B8C93A081B18118
S1130CC0CD01880F991FA80FB91FA55ABE4FE70180
S1130CD08881982F9295907F8C918F70892B8C931B
S1130CE060817181ADEBBBE2EDE8F6E180E090E07C
S1130CF02D913D9162177307B0F040815181240F0B
S1130D00351F6217730778F46F5F7F4FFC01EE0F96
S1130D10FF1FE558F94E808191818617970740F4AB
S1130D207183608305C0019632968830910501F77E
S1130D30DF91CF911F910F91FF90EF9008958F92C3
S1130D409F92AF92BF92CF92DF92EF92FF920F9356
S1130D501F93CF93DF93CDB7DEB729970FB6F894DF
S1130D60DEBF0FBECDBF662309F40AC1862E5C0127
S1130D70912C22E0290DF501E90DF11DC080D12C43
S1130D80DC2CCC2481E0890DF501E80FF11D808174
S1130D90C82ADF82CE824FEFC416D40609F063C09E
S1130DA0F501E20FF11D208130E0322F222783E08C
S1130DB0890DF501E80FF11D8081282B84E0890D50
S1130DC0F501E80FF11D808190E0982F882745E018
S1130DD0490DF501E40FF11D4081842B9F838E831F
S1130DE046E0490DF501E40FF11D4081498347E0D8
S1130DF0490DF501E40FF11D40814A8348E0490D96
S1130E00F501E40FF11D40814B8349E0490DF501E3
S1130E10E40FF11D4AE0940E40814D8342954F70DA
S1130E204C83398728878217930708F4A6C0CE011C
S1130E3005967C018E010C5F1F4F9E012D5F3F4F75
S1130E40AE014E5F5F4FBE016F5F7F4F0396CDDDF6
S1130E50888599850196998788872E813F812817EF
S1130E60390728F78AC091E0C91690E4D90608F436
S1130E7054C040E4D41ACC0CDD1C822F90E0998736
S1130E8088872C0DC80ED91EF501E20FF11D3081A3
S1130E90398331E0320FF501E30FF11D30813A83DC
S1130EA032E0320FF501E30FF11D30813B8368948A
S1130EB0992492F8920E2D5FF501E20FF11D208125
S1130EC02D8322952F702C838C159D0508F055C019
S1130ED0F501E80FF91F208130E0322F2227029616
S1130EE0998788878181282B3F832E83CE0105969D
S1130EF07C018E010C5F1F4F9E012D5F3F4FAE01A1
S1130F004E5F5F4FBE016F5F7F4F01966EDD888538
S1130F1099858C159D05E0F230C0F501E20FF11DB5
S1130F208081898383E0890DF501E80FF11D8081BB
S1130F308A8384E0890DF501E80FF11D80818B839C
S1130F4085E0890DF501E80FF11D96E0990E808189
S1130F508D8382958F708C83CE0105967C018E01E2
S1130F600C5F1F4F9E012D5F3F4FAE014E5F5F4FE1
S1130F70BE016F5F7F4F019638DD981408F4F9CEF7
S1130F8029960FB6F894DEBF0FBECDBFDF91CF9187
S1130F901F910F91FF90EF90DF90CF90BF90AF9093
S1130FA09F908F900895EFE2F1E088E0808387E0DE
S1130FB081838AE0828383E0089580910E018430E6
S1130FC0B9F08D3021F1813061F5ADE8B6E1EFE2A1
S1130FD0F1E02FE331E08C9111969C9111971296D8
S1130FE0908381833296E217F307A9F780E108958D
S1130FF0EFE2F1E0ADECBBE211968C9111978083A6
S11310008C91818312968C91828383E008958091E0
S1131010791690917A16EFE2F1E09083818381E072
S1131020089580E00895BF92CF92DF92EF92FF92ED
S11310300F931F93CF93DF93DC01EB014C9150E0AE
S1131040FA01EE0FFF1FE354F44D208131818881B2
S11310509981820F931F28173907D8F5F901EE0FEC
S1131060FF1FE20FF31FE55AFE4F80818F7051F08E
S1131070F901EE0FFF1FE20FF31FE35AFE4F8081C9
S113108088608083F901EE0FFF1FE20FF31FE55A1A
S1131090FE4F808182958F7051F0F901EE0FFF1F92
S11310A0E20FF31FE35AFE4F8081806180832F5F3C
S11310B03F4F4C9150E0FA01EE0FFF1FE354F44D03
S11310C06881798180819181860F971F281739075C
S11310D028F2440F551FFA01E558F94E1182108287
S11310E02C91E22FF0E081E090E002C0880F991F7C
S11310F02A95E2F768817981EE0FFF1FE354F44DDE
S113110020813181A901440F551F240F351F225618
S1131110394E9AB1982B9AB99BB1082F009509239F
S11311201BB1182BBFB6F8946115710509F43BC0C7
S1131130E090CD2BDB01AA0FBB1FA60FB71FA20F98
S1131140B31F40E050E00F2EF3E0FF2EF02DFE0C15
S11311501CC0911102C0D08101C0D82F3196C8E0C3
S11311601BB900C0D7FF0BB9DD0F000000C000C0E1
S11311700BB9CA95A9F78F5FF812EBCF2D5F3F4FDC
S11311804F5F5F4F2A173B0771F0FA01EE0FFF1F05
S1131190E40FF51FE35AFE4F908195FB992790F9D0
S11311A08E2DF901D6CF80E090E07AD520E030E0B2
S11311B044EB53E4DBD548D56B017C012091050158
S11311C03091060140E050E05CD680910701280F81
S11311D020930701E8E8F0E080819181C80ED91ED0
S11311E0D182C082BFBE88EC8A95F1F7DF91CF919E
S11311F01F910F91FF90EF90DF90CF90BF900895D3
S1131200DF92EF92FF920F931F93CF93DF9300D05F
S11312101F92CDB7DEB71982E0910E018E2F90E0B8
S11312208031910508F04CC1FC01E457FF4F67C6BB
S113123060910F0180E191E082DD42C1E0E06894B9
S1131240DD24D1F800E010E0E12CF12CAD2DB0E06C
S1131250A25FBE4F6C91F0E0EE0FFF1FE357F94E13
S113126010826183C8015ADAE981F0E0A1E0AD0D92
S1131270B0E0A25FBE4F6C91EE0FFF1FE357F94E33
S113128080819181862B91838083D394D394C801E8
S113129001960E5F1F4F42DAE9818E2F90E0880F8E
S11312A0991FDC01A354B44DED92FC92DC01A357C9
S11312B0B94E8D919C91E80EF91EEF5FE983E830F9
S11312C028F2FEC020E012E0E12FF0E0E25FFE4FE2
S11312D0808190E0982F8827E1E0E10FF0E01E5F25
S11312E0E25FFE4F3081832B9B838A83019651F406
S11312F0E22FF0E0EE0FFF1FE357F94E808191815A
S11313009B838A838A819B81892B31F0BE016E5F26
S11313107F4FCE01019687DEE98121E02E0F2983DC
S1131320283090F2CDC0EDECFBE2AEE0B1E01296D5
S11313308C911297818313968C91139780831496C2
S11313408C918283BDC08091791690917A16E1D9EF
S1131350811116C08091791690917A160196D9D987
S113136081110EC08091791690917A160296D1D986
S1131370811106C080E190E090937A1680937916EB
S113138081E080939D168091100180935A0198C04A
S113139080E190E090937A16809379161092BC2B9A
S11313A010929D168DC0EEE0F1E0828190E0982FBE
S11313B088272381822B90937A16809379164097FD
S11313C008F07EC080E190E09093090180930801C9
S11313D077C0809108019091090120910F01AC011F
S11313E0420F511D9A012130304108F069C00EE0CE
S11313F011E0F80162819C012F5F3F4F3093090196
S1131400209308018BD9F8016381809108019091A0
S113141009019C012F5F3F4F30930901209308017C
S11314207DD9F80161816250809108019091090190
S11314309C012F5F3F4F30930901209308016ED91F
S113144084E08983F801818190E001960497F4F0A7
S113145084E090E0FC01E25FFE4F6081809108012E
S1131460909109019C012F5F3F4F30930901209314
S1131470080154D989818F5F898390E0F801218123
S113148030E02F5F3F4F2817390724F78091080178
S1131490909109019C012E5F3F4F2115304180F44A
S11314A060E03CD9809108019091090160E00196C7
S11314B035D9809108019091090160E002962ED9F6
S11314C00F900F900F90DF91CF911F910F91FF908C
S11314D0EF90DF9008950F931F93A82FB0E0FD01C4
S11314E0E85CFD4F9491691708F440C0FD01EE0FCC
S11314F0FF1FE295F295F07FFE27E07FFE27D901DA
S11315007C91E70FF11DE85CFE4FA491B0E0F80177
S1131510008002C0B595A7950A94E2F7A0FF25C004
S1131520DA018D919C91FC01EE0FFF1FE80FF91F6A
S1131530E35AFE4F208120FF0CC0FC01EE0FFF1F79
S11315408E0F9F1FFC01E256F94E81818F5F8183CC
S113155011C0FC01EE0FFF1F8E0F9F1FFC01E2560E
S1131560F94E81818150818305C0691B662311F086
S11315708F5FB1DF1F910F9108950F931F93A82FD1
S1131580B0E0FD01E85CFD4F9491691708F440C098
S1131590FD01EE0FFF1FE295F295F07FFE27E07F3D
S11315A0FE27D9017C91E70FF11DE85CFE4FA49161
S11315B0B0E0F801008002C0B595A7950A94E2F75F
S11315C0A0FF25C0DA018D919C91FC01EE0FFF1F55
S11315D0E80FF91FE35AFE4F208121FF0CC0FC01E4
S11315E0EE0FFF1F8E0F9F1FFC01E256F94E808104
S11315F08F5F808311C0FC01EE0FFF1F8E0F9F1FB2
S1131600FC01E256F94E80818150808305C0691B3C
S1131610662311F08F5FB1DF1F910F9108950F932F
S11316201F93A82FB0E0FD01E85CFD4F949169176A
S113163008F440C0FD01EE0FFF1FE295F295F07F24
S1131640FE27E07FFE27D9017C91E70FF11DE85CBE
S1131650FE4FA491B0E0F801008002C0B595A795B3
S11316600A94E2F7A0FF25C0DA018D919C91FC0158
S1131670EE0FFF1FE80FF91FE35AFE4F208122FFF0
S11316800CC0FC01EE0FFF1F8E0F9F1FFC01E256E2
S1131690F94E82818F5F828311C0FC01EE0FFF1F20
S11316A08E0F9F1FFC01E256F94E82818150828386
S11316B005C0691B662311F08F5FB1DF1F910F9185
S11316C008954F925F926F927F928F929F92AF9202
S11316D0BF92CF92DF92EF92FF920F931F93CF931B
S11316E0DF93CDB7DEB7A3970FB6F894DEBF0FBE76
S11316F0CDBFB09007018B2D90E020910001309177
S11317000101280F391F309301012093000120911A
S1131710020130910301820F931F90930301809380
S1131720020180919D16882309F466C2809179167E
S113173090917A160E948903182F809179169091BE
S11317407A1601960E948903212F30E0322F222736
S1131750282B80910201909103018217930708F4CA
S11317608DC010920301109202018091791690911C
S11317707A169C012D5F3F4F30937A162093791689
S113178002960E948903082F1B82882309F42EC223
S113179010E08091791690917A169C012F5F3F4F4B
S11317A030937A16209379160E948903E4E0F0E0DE
S11317B0EC0FFD1FE10FF11D80831B811F5F1B8355
S11317C0101738F3602FCE010496B9DA1B8280E03B
S11317D090E0FC01EE0FFF1FE558F94E20813181A6
S11317E02115310589F0880F991FFC01E354F44D4C
S11317F080819181281B390B3BA32AA3BE016E5D16
S11318007F4FCE0103960FDC8B818F5F8B838830F3
S1131810F8F28091791690917A169C012E5F3F4FD1
S113182021153041B0F40E948903811127C08091B1
S1131830791690917A1601960E94890381111EC02F
S11318408091791690917A1602960E9489038111EB
S113185015C080E190E090937A1680937916809178
S1131860BC2B8F5F8093BC2B90915A01992331F04C
S1131870891720F01092BC2B10929D161B82E0E079
S1131880912CA12CEE24E394F12C0F2EF8E8CF2E0A
S1131890D12CF02DF0E0EE0FFF1FE354F44D8081C6
S11318A091819BA38AA32B8130E0220F331FF9017E
S11318B0E354F44DD901A357B94E408151812D9180
S11318C03C91240F351F8217930708F088C1692DB6
S11318D07A2DFC01EE0FFF1FE80FF91FE35AFE4FAC
S11318E0208124FF4DC025FF26C0FC01EE0FFF1F01
S11318F0E80FF91FE55AFE4F208122952F70A701AA
S113190002C0440F551F2A95E2F72091000130913F
S1131910010124233523232B99F5FC01EE0FFF1F2E
S1131920E80FF91FE35AFE4F20812F7D2083BC016D
S11319306F5F7F4F25C0FC01EE0FFF1FE80FF91FFB
S1131940E55AFE4F208122952F70A70102C0440F53
S1131950551F2A95E2F720910001309101012423BB
S11319603523232B69F0FC01EE0FFF1FE80FF91F4D
S1131970E35AFE4F208120622083BC016F5F7F4FBA
S1131980FC01EE0FFF1FE80FF91FE35AFE4F208101
S113199023FF90C0FC01EE0FFF1F8E0F9F1FFC0161
S11319A0E55AFE4F20812F70809100019091010132
S11319B002C0880F991F2A95E2F78115904809F013
S11319C079C0BB2009F472C02AA13BA1F901EE0F32
S11319D0FF1FE20FF31FE55AFE4F8181882321F098
S11319E0812C14C0811112C0F901EE0FFF1F2E0FBC
S11319F03F1FF901E55AFE4F8081807F8083F90102
S1131A00E35AFE4F8081877F808350C0982F96953C
S1131A1096959695998387708A83F901EE0FFF1F37
S1131A202E0F3F1FF901E053F44D8E010E5F1F4F3F
S1131A309E012F5F3F4FAE014E5D5F4F618180E09D
S1131A404ADD8AA19BA1FC01EE0FFF1F8E0F9F1F91
S1131A50FC01E053F44D9E012F5F3F4FAE014E5DFC
S1131A605F4F608180E089DD8AA19BA1FC01EE0FBC
S1131A70FF1F8E0F9F1FFC01E053F44D9E012F5F4B
S1131A803F4FAE014E5D5F4F628180E0C8DD2AA109
S1131A903BA1F901EE0FFF1FE20FF31FE55AFE4FC2
S1131AA081818F5F81838394B8109CCF6AA17BA1CD
S1131AB06F5F7F4F8AA19BA101969BA38AA34B8151
S1131AC050E09A01220F331FF901E354F44D0190C1
S1131AD0F081E02DD901A357B94E2D913C912E0FE1
S1131AE03F1F8217930708F4F4CE6115710509F4BA
S1131AF076C0C70102C0880F991F4A95E2F76E1B92
S1131B007F0B9F01220F331FE20FF31FE256F94EA2
S1131B109AB1982B9AB99BB1582F509559234BB130
S1131B20482B8FB6F8946115710509F436C04090BE
S1131B30CD2B9B01220F331F260F371F2E0F3F1F64
S1131B4080E090E013E0140D1AC0611002C05C90B4
S1131B5001C0572C119608E04BB900C057FE5BB981
S1131B60550C000000C000C05BB90A95A9F7739436
S1131B701711EBCF33960196E217F30771F0DC01EE
S1131B80AA0FBB1FA80FB91FA35ABE4F6C9065FACA
S1131B90662460F8742CDF01D8CF80E090E080D018
S1131BA020E030E044EB53E4E1D04ED02B013C0183
S1131BB0209105013091060140E050E062D180910E
S1131BC00701280F20930701F60180819181480EB7
S1131BD0591E518240828FBEF8ECFA95F1F7EB81E1
S1131BE0EF5FEB83E83008F455CE08C060E0CE0127
S1131BF00496A5D81B82EBCD1B8241CEA3960FB6CB
S1131C00F894DEBF0FBECDBFDF91CF911F910F912E
S1131C10FF90EF90DF90CF90BF90AF909F908F9008
S1131C207F906F905F904F9008950E9433010E94BF
S1131C30D6030E949303FDCFB6C90895BEC9089583
S1131C40DFCA08953ECD089570D088F09F5790F074
S1131C50B92F9927B751A0F0D1F0660F771F881FCD
S1131C60991F1AF0BA95C9F712C0B13081F077D034
S1131C70B1E0089574C0672F782F8827B85F39F0D2
S1131C80B93FCCF3869577956795B395D9F73EF42C
S1131C9090958095709561957F4F8F4F9F4F0895D4
S1131CA0E89409C097FB3EF49095809570956195F2
S1131CB07F4F8F4F9F4F9923A9F0F92F96E9BB27A8
S1131CC09395F695879577956795B795F111F8CF24
S1131CD0FAF4BB0F11F460FF1BC06F5F7F4F8F4F8F
S1131CE09F4F16C0882311F096E911C0772321F085
S1131CF09EE8872F762F05C0662371F096E8862F1D
S1131D0070E060E02AF09A95660F771F881FDAF773
S1131D10880F9695879597F9089557FD9058440F25
S1131D20551F59F05F3F71F04795880F97FB991F36
S1131D3061F09F3F79F087950895121613061406F3
S1131D40551FF2CF4695F1DF08C016161706180680
S1131D50991FF1CF86957105610508940895E8945B
S1131D60BB2766277727CB0197F908950BD078C056
S1131D7069D028F06ED018F0952309F05AC05FC0DE
S1131D801124EECFCADFA0F3959FD1F3950F50E055
S1131D90551F629FF001729FBB27F00DB11D639F19
S1131DA0AA27F00DB11DAA1F649F6627B00DA11DBF
S1131DB0661F829F2227B00DA11D621F739FB00D65
S1131DC0A11D621F839FA00D611D221F749F3327D5
S1131DD0A00D611D231F849F600D211D822F762F6E
S1131DE06A2F11249F5750408AF0E1F088234AF06B
S1131DF0EE0FFF1FBB1F661F771F881F91505040B7
S1131E00A9F79E3F510570F014C0AACF5F3FECF3D1
S1131E10983EDCF3869577956795B795F795E795A2
S1131E209F5FC1F7FE2B880F911D9695879597F9B3
S1131E30089597F99F6780E870E060E008959FEF48
S1131E4080EC089500240A9416161706180609064D
S1131E50089500240A94121613061406050608951C
S1131E60092E0394000C11F4882352F0BB0F40F4A4
S1131E70BF2B11F460FF04C06F5F7F4F8F4F9F4FE4
S1131E800895A1E21A2EAA1BBB1BFD010DC0AA1FB7
S1131E90BB1FEE1FFF1FA217B307E407F50720F0CF
S1131EA0A21BB30BE40BF50B661F771F881F991F4A
S1131EB01A9469F760957095809590959B01AC0193
S1131EC0BD01CF010895052E97FB16F400940FD0A1
S1131ED057FD05D0D6DF07FC02D046F408C0509564
S1131EE04095309521953F4F4F4F5F4F0895909502
S1131EF08095709561957F4F8F4F9F4F0895EE0F9A
S1131F00FF1F0024001C0BBE0790F691E02D0994DE
S1131F10F999FECF92BD81BDF89A992780B50895AD
S1131F20262FF999FECF92BD81BDF89A019700B48E
S1131F30021639F01FBA20BD0FB6F894FA9AF99A2E
S1131F400FBE0895262FF999FECF1FBA92BD81BD09
S1131F5020BD0FB6F894FA9AF99A0FBE0196089527
S1071F60F894FFCF1F
S9030000FC
