:10000000ECC0FBC0FAC0F9C0F8C0F7C006C3F5C029
:10001000F4C0F3C0F2C0F1C0F0C0EFC0EEC0EDC05C
:10002000ECC061C2EAC05FC167C1A9C1A8C1A7C1D4
:10003000A6C1A5C1A4C1A3C1A2C164C164C16FC14D
:1000400073C17FC19CC182C185C199C198C18CC156
:100050008BC18AC189C188C187C186C185C18FC151
:1000600083C18DC18CC18BC18AC189C188C187C13F
:1000700086C185C184C17CC182C181C180C17FC16B
:100080007EC17DC17CC17BC17AC179C129C1B1C1A9
:10009000BEC1C6C123C222C221C220C21FC21EC20B
:1000A000CBC11CC21BC21AC219C2D3C1DEC116C247
:1000B000EFC141C739C736C76CC8AFC76AC869C87E
:1000C00068C867C866C8B6C7E2C7D9C7E3C7F0C77C
:1000D000F6C7AAAAAAAAAAAAAAAAAAAAAAAAAAAA17
:1000E000AAAAAAAAAAAAAAAAAAAAAAAAAAAAAAAA70
:1000F000AAAA4444444444444444444444444444F4
:1001000044444444444444444444444444444444AF
:100110004444101010101010101010101010101077
:1001200010101010101010101010101010101010CF
:100130001010000100010001000100010001000198
:1001400000010001000100010001000100010001A7
:10015000000100000100000001000000010000009B
:10016000010000000100000001000000010000008B
:10017000010000000000010000000000000001007C
:10018000000000000000010000000000000001006D
:10019000000000000000000000000100000000005E
:1001A000000000000000000000000100000000004E
:1001B000000000000000000000000000000000003F
:1001C000000001000000000000000000000000002E
:1001D0000000804020100804020111241FBECFE55A
:1001E000D4E0DEBFCDBF24E0A0E6B0E001C01D92A8
:1001F000A036B207E1F768DAF0CB02CFCF93DF93F6
:1002000016B80FB6F894A89581B5886181BD11BC68
:100210000FBE80E090E0BBDBC82FD0E0DC2FCC2706
:10022000D0936D00C0936C0081E090E0B0DBC82BF0
:10023000CE0101978E3F9F4F28F4D0936D00C0935D
:100240006C000FC080E094E090936D0080936C0090
:1002500064E080E090E0B4DB60916C0081E090E0CD
:10026000AFDB20916C0030916D0040E050E060E029
:100270007BE187EB90E06FDB3093660020936500B5
:1002800081E08EBD89B7806189BF82E090E07FDB2D
:100290009DEF980F953708F081E6880F82B986B7F1
:1002A0008F7D86BF86B7856486BF78941092AF0035
:1002B0001092690010926800DF91CF910895E0914B
:1002C0006E00E83C08F45AC08E2F90E0FC01E85C18
:1002D000F109E433F10508F052C0ED5EFF4F0994D7
:1002E0008091AF000CC084E090E051DB80938F00E0
:1002F00085E090E04CDB34C083E090E048DB809305
:100300008F0034C0E5C910928F0087EB8093900076
:100310008BE1809391001092920084E0089581E037
:1003200080938F008AEF1CC0209168003091690093
:100330008AEF91E0821B930B90938F008AEF821BD0
:100340000FC0809168009091690008C010928F00E2
:1003500080E206C080916C0090916D0090938F00B8
:100360008093900082E0089510928F0081E00895BC
:1003700081E080938F008093900001C0AAC980E043
:100380000895CF93C091700084E090E000DBC81323
:100390000AC0C091710085E090E0F9DA91E0C813DD
:1003A00090E0892F01C080E0CF9108950F931F93B3
:1003B000CF93DF9380916A00882309F48FC0209146
:1003C0006F0030E090E002972817390709F086C0E7
:1003D000E0916E00E83C08F47CC08E2F90E0FC01B8
:1003E000E85CF109E231F10508F078C0E95BFF4F04
:1003F0000994C7DF882309F471C06091720084E01A
:1004000090E0DEDA6091730085E090E004C06091D6
:10041000700083E090E0DF91CF911F910F91D0CADF
:10042000B0DF882309F45AC060917200862F880FCC
:1004300082B982E090E0EFCFA4DF882309F44EC0B8
:1004400098E088E10FB6F894A89581BD0FBE91BDE4
:10045000FFCF80917000909171009827892798278D
:10046000909369008093680039C08BDF8823B1F1D5
:10047000C6E0D0E000E012E06FEFCE0190DA219606
:100480000C171D07C9F7109269001092680026C06A
:100490002091700030917100322723273227C091BC
:1004A000700030936D0020936C0040E050E060E0FD
:1004B0007BE187EB90E04FDA309366002093650094
:1004C0006C2F80E090E07CDA6091710081E090E038
:1004D000A2CFDF91CF911F910F91FCC8DF91CF91F7
:1004E0001F910F9108951F920F920FB60F92112432
:1004F0002F933F934F935F936F937F938F939F932C
:10050000AF93BF93EF93FF9381B1887F803AE1F17E
:1005100028F4803641F0803859F03AC0883AB1F07A
:10052000883BC9F035C085EC86BF10926A0032C0A6
:10053000E0916A0081E08E0F80936A0093B1F0E051
:10054000E259FF4F90838032E8F422C010928E006F
:10055000B6DE8093640080916400811102C013B8FC
:1005600011C0E0918E0081E08E0F80938E00F0E04C
:10057000E157FF4F808183B990918E008091640094
:10058000981730F085E805C085EC86BF0FDF02C004
:1005900085EC86BFFF91EF91BF91AF919F918F91B5
:1005A0007F916F915F914F913F912F910F900FBE6F
:1005B0000F901F9018958A5F9F4FE9C98A5F9F4FE0
:1005C000EEC9CF93C0916700CC2329F184D88091E4
:1005D000B8009091B9008C0F911D9093B900809351
:1005E000B800809167008C1B809367008091B600F3
:1005F0009091B70020916C0030916D002817390759
:1006000030F001969093B7008093B60004C010922A
:10061000B7001092B600CF9108951F920F920FB6B7
:100620000F9211242F933F938F939F93F8942AB5A1
:100630003BB58091650090916600820F931F9BBD32
:100640008ABD809167008F5F8093670078949F9147
:100650008F913F912F910F900FBE0F901F90189583
:10066000CF92DF92EF92FF92CF93DF939C01DB0159
:1006700081B3842B81BB82B3542F5095582382B30E
:10068000482BCFB7F894E090310360E070E06A1730
:100690007B0741F1FB01EE0FFF1FE60FF71FE3544D
:1006A000FF4F808185FB882780F9F90190E088233E
:1006B00019F0FE2CF90E01C0F0803196D8E042BB53
:1006C00000C0F7FE52BBFF0C000000C000C052BBD0
:1006D000DA95A9F79F5F933051F72D5F3F4F6F5F1A
:1006E0007F4FD5CF80E090E023D820E030E044EB8E
:1006F00053E484D8F1D76B017C01209165003091DF
:10070000660040E050E005D980916700280F2093F3
:1007100067008AB59BB5C80ED91EDBBCCABCCFBF6B
:10072000DF91CF91FF90EF90DF90CF90089598DF09
:1007300088EC8A95F1F708955F926F927F928F927D
:100740009F92AF92BF92CF92DF92EF92FF920F9360
:100750001F93CF93DF931092FB011092BA00109277
:10076000280388E090E09093E8018093E70190935C
:100770006900809368001092320310923103109246
:10078000330339E2C32E33E0D32E43EF842E41E00E
:10079000942EE12CF12C00E010E0C0E0D0E06624C3
:1007A0006394712C5E2CC80106DFF40110828183F2
:1007B000C80101960E5F1F4FFEDEF40120813181DA
:1007C000A901482BCA018536910518F491838083CD
:1007D00003C0F40111821082F601C193D1936F011D
:1007E000F401619171914F015B01AC0EBD1EA3013B
:1007F00001C0440F5A94EAF7CE01880F991F8C0F5D
:100800009D1F84509E4F93DFFFEFEF1AFF0A0830C1
:10081000110511F0E501C6CFDF91CF911F910F9126
:10082000FF90EF90DF90CF90BF90AF909F908F9010
:100830007F906F905F900895CF92DF92EF92FF923A
:100840000F931F93CF93DF93FC01E901A081B18146
:10085000CD01880F991FA80FB91FA354BF4F8C91CA
:10086000877F8C93D8012C9180819181222309F478
:10087000DFC0DC01AA0FBB1F8A0F9B1FDC01A55440
:10088000BF4F11961C9280819181DC01AA0FBB1F82
:100890009D01280F391FC90184509E4FDC0111961C
:1008A0009C91DB018C91D901A354BF4F8917B8F4F7
:1008B0008C918E7F8C93808191819C01220F331FBC
:1008C000820F931F9C012C5C3C4F84509E4FDC0197
:1008D00011968C91DB019C91891BD90118C08C91D8
:1008E00081608C93808191819C01220F331F820F44
:1008F000931F9C012C5C3C4F690184509E4FDB018F
:100900002C91DC0111968C91281B822FD601119617
:100910008C9380819181DC01AA0FBB1F9D01280F60
:10092000391FC90184509E4FDC019C91DA018C91E2
:10093000D901A354BF4F8917B0F48C918D7F8C934C
:10094000808191819C01220F331F820F931F9C0194
:100950002C5C3C4F84509E4FDC018C91DA019C91C1
:10096000891BD90116C08C9182608C938081918102
:100970009C01220F331F820F931FBC016C5C7C4FC4
:1009800084509E4FDA012C91DC018C91281B822F20
:10099000DB018C9380819181DC01AA0FBB1F9D013B
:1009A000280F391FC90184509E4FDC0112969C917B
:1009B0008881D901A354BF4F8917B8F48C918B7FDC
:1009C0008C93808191819C01220F331F820F931F92
:1009D0009C012C5C3C4F84509E4FDC0112968C9104
:1009E0009881891BE9018A8315C08C9184608C935E
:1009F000808191819C01220F331F820F931FDC01A4
:100A0000AC5CBC4F84509E4F2881EC018A81281B2E
:100A100012962C9380819181DC01AA0FBB1F8A0F53
:100A20009B1FDC01A554BF4F81E011968C9326C01B
:100A3000DB012C91DC01AA0FBB1F8A0F9B1FDC017D
:100A4000A450BE4F11962C9380819181DA012C9194
:100A5000DC01AA0FBB1F8A0F9B1FDC01A450BE4FF5
:100A60002C93808191812881DC01AA0FBB1F8A0F02
:100A70009B1FDC01A450BE4F12962C93A081B18124
:100A8000CD01880F991FA80FB91FA354BF4F8C9198
:100A90008F7E8C93E701888181110CC0A081B18188
:100AA000CD01880F991FA80FB91FA354BF4F8C9178
:100AB0008F7D8C93A081B181CD01880F991FA80FE4
:100AC000B91FA554BF4FE8018881982F9F708C9162
:100AD000807F892B8C93A081B181CD01880F991FD4
:100AE000A80FB91FA554BF4FE7018881982F929591
:100AF000907F8C918F70892B8C9320813181A9E21A
:100B0000B3E0E3EFF1E080E090E06D917D91261796
:100B10003707B0F040815181460F571F2417350722
:100B200078F42F5F3F4F880F991FFC01E751FE4F6C
:100B3000808191818217930740F43183208305C01F
:100B4000019632968430910501F7DF91CF911F9184
:100B50000F91FF90EF90DF90CF9008958F929F922A
:100B6000AF92BF92CF92DF92EF92FF920F931F93BB
:100B7000CF93DF93CDB7DEB729970FB6F894DEBFDA
:100B80000FBECDBF5C01C62ED12CDC1408F0FEC018
:100B900042E04D0DF501ED0DF11D808190E0982FA3
:100BA000882721E02D0DF501E20FF11D2081822B18
:100BB0009C838B83242F30E08F3F5FEF950709F0F4
:100BC00060C0F501E20FF31F808190E0982F882725
:100BD00023E02D0DF501E20FF11D2081822B24E091
:100BE0002D0DF501E20FF11D208130E0322F22277B
:100BF00045E04D0DF501E40FF11D4081242B3C83B0
:100C00002B8326E02D0DF501E20FF11D20812987B0
:100C100027E02D0DF501E20FF11D2081288728E046
:100C20002D0DF501E20FF11D20812F8329E02D0DFF
:100C3000F501E20FF11D2AE0D20E20812D832295CD
:100C40002F702E839A83898329813A818B819C819D
:100C50008217930708F499CFCE0105967C018E0187
:100C60000A5F1F4F9E01295F3F4FAE01485F5F4FF4
:100C7000BE01675F7F4F0497DFDD89819A8101960E
:100C8000E1CF813050E4950708F44FC09054880FAD
:100C9000991F3A832983480F4C01820E931EF50158
:100CA000E40FF11D8081898781E0840FF501E80F51
:100CB000F11D8081888782E0840FF501E80FF11D26
:100CC00080818F8364E0D62ED40E4D5FF501E40F52
:100CD000F11D80818D8382958F708E8329813A8169
:100CE0002815390508F051CFF501E20FF31F808177
:100CF00090E0982F88272E5F3F4F3A8329832181E8
:100D0000822B9C838B83CE0105967C018E010A5F2A
:100D10001F4F9E01295F3F4FAE01485F5F4FBE01ED
:100D2000675F7F4F029788DDD9CFF501E20FF31F90
:100D30008081898783E08D0DF501E80FF11D8081A9
:100D4000888784E08D0DF501E80FF11D80818F8388
:100D500085E08D0DF501E80FF11D96E0D90E80813B
:100D60008D8382958F708E83CE0105967C018E01D6
:100D70000A5F1F4F9E01295F3F4FAE01485F5F4FE3
:100D8000BE01675F7F4F029757DDFFCE29960FB6F2
:100D9000F894DEBF0FBECDBFDF91CF911F910F91B1
:100DA000FF90EF90DF90CF90BF90AF909F908F908B
:100DB0000895EFE8F0E084E08083118284E6828386
:100DC00083E0089580916E008430B1F08D3011F190
:100DD000813051F5A3EFB1E0EFE8F0E08C9111968E
:100DE0009C911197129690838183329680E0E73927
:100DF000F807A1F788E008958091320380938F006F
:100E0000809131038093900080913303809391000F
:100E100083E008958091E7019091E80190938F001D
:100E20008093900081E0089580E008950F931F93D0
:100E3000CF93DF93DC01EC91F0E0EE0FFF1FE75D55
:100E4000FC4F808191812C9130E0220F331FE9010A
:100E5000C75DDC4FFB010081118148815981400F42
:100E6000511F8417950718F5AC01440F551FEA016F
:100E7000C80FD91F9E0125543F4FF90120812F70C3
:100E800029F0C354DF4F288128602883FA01E80F36
:100E9000F91FEF01C554DF4F288122952F7029F0EB
:100EA000E354FF4F2081206120830196CCCFF901CC
:100EB000E751FE4F118210828C91E82FF0E041E063
:100EC00050E001C0440F8A95EAF7DB016D917C91F7
:100ED000EE0FFF1FE75DFC4F808191819C01220F87
:100EE000331F820F931F84509E4FDF91CF911F912C
:100EF0000F911DCCDF92EF92FF920F931F93CF9330
:100F0000DF9300D01F92CDB7DEB71B82E0916E0059
:100F10008E2F90E08031910508F03BC1FC01E75A2B
:100F2000FF4F099412E075C062E0D62E00E010E099
:100F3000E12CF12C06C060916F0080E790E00EDE9E
:100F400028C1EB81E43008F024C1AD2DB0E0A259F6
:100F5000BF4F6C91F0E0EE0FFF1FED50FE4F10827F
:100F60006183C8012BDBEB81F0E0A1E0AD0DB0E0C7
:100F7000A259BF4F6C91EE0FFF1FED50FE4F8081C5
:100F80009181862B91838083D394D394C801019659
:100F90000E5F1F4F13DB2B81822F90E0880F991F6C
:100FA000FC01E75DFC4FF182E082FC01ED50FE4F59
:100FB00080819181E80EF91E2F5F2B83C2CFA12F74
:100FC000B0E0A259BF4F8C9190E0982F8827A1E004
:100FD000A10FB0E01E5FA259BF4F2C91822B9A83C4
:100FE0008983019649F4F0E0EE0FFF1FED50FE4FAC
:100FF000808191819A83898389819A81892B31F0BB
:10100000BE016F5F7F4FCE01039610DF8B818F5F34
:101010008B83EB81E43098F2BCC0809170008093A8
:10102000320380917100809331038091720080932C
:101030003303AFC08091E7019091E801BCDA8111E0
:1010400016C08091E7019091E8010196B4DA811110
:101050000EC08091E7019091E8010296ACDA81110F
:1010600006C088E090E09093E8018093E70181E07A
:101070008093FB01809170008093BA008AC088E061
:1010800090E09093E8018093E7011092280310927A
:10109000FB017FC080917000909171009827892793
:1010A00098279093E8018093E701089708F071C0B2
:1010B00088E090E090936900809368006AC0809116
:1010C00068009091690020916F00AC01420F511DA2
:1010D0009A012130324008F05CC0609170009C01A0
:1010E0002F5F3F4F309369002093680067DA60916B
:1010F000710080916800909169009C012F5F3F4FC3
:10110000309369002093680059DA60916F00625053
:1011100080916800909169009C012F5F3F4F309350
:101120006900209368004ADA84E08B832B8130E0E9
:1011300040916F0050E04F5F5F4F80916800909149
:101140006900421753077CF0F901E259FF4F6081B3
:101150009C012F5F3F4F30936900209368002EDA87
:101160008B818F5FE2CF9C012E5F3F4F2115324074
:1011700080F460E023DA809168009091690060E07B
:1011800001961CDA809168009091690060E00296F7
:1011900015DA0F900F900F90DF91CF911F910F9163
:1011A000FF90EF90DF9008950F931F93A82FB0E06A
:1011B000FD01EE52FE4F9491691778F1FD0175E043
:1011C000EE0FFF1F7A95E1F7D9017C91E70FF11D32
:1011D000EE52FF4FA491B0E0F801008002C0B59537
:1011E000A7950A94E2F7A0FF17C0DA018D919C91B0
:1011F000FC01EE0FFF1FE80FF91FDF01A354BF4FE3
:101200008C91E450FE4F80FF03C081818F5F02C04C
:1012100081818150818305C0691B662311F08F5F36
:10122000C5CF1F910F9108950F931F93A82FB0E082
:10123000FD01EE52FE4F9491691778F1FD0175E0C2
:10124000EE0FFF1F7A95E1F7D9017C91E70FF11DB1
:10125000EE52FF4FA491B0E0F801008002C0B595B6
:10126000A7950A94E2F7A0FF17C0DA018D919C912F
:10127000FC01EE0FFF1FE80FF91FDF01A354BF4F62
:101280008C91E450FE4F81FF03C080818F5F02C0CC
:1012900080818150808305C0691B662311F08F5FB8
:1012A000C5CF1F910F9108950F931F93A82FB0E002
:1012B000FD01EE52FE4F9491691778F1FD0175E042
:1012C000EE0FFF1F7A95E1F7D9017C91E70FF11D31
:1012D000EE52FF4FA491B0E0F801008002C0B59536
:1012E000A7950A94E2F7A0FF17C0DA018D919C91AF
:1012F000FC01EE0FFF1FE80FF91FDF01A354BF4FE2
:101300008C91E450FE4F82FF03C082818F5F02C048
:1013100082818150828305C0691B662311F08F5F33
:10132000C5CF1F910F910895CF92DF92EF92FF9258
:101330000F931F93CF93DF93CDB7DEB7A3970FB66D
:10134000F894DEBF0FBECDBFD09067008D2D90E02A
:101350002091600030916100280F391F30936100A7
:10136000209360002091620030916300820F931FF0
:1013700090936300809362008091FB01882309F4BD
:10138000A0C08091E7019091E80115D9F82E8091D5
:10139000E7019091E80101960ED92F2D30E0322F10
:1013A0002227282B80916200909163008217930777
:1013B00008F487C010926300109262008091E701E8
:1013C0009091E8019C012D5F3F4F3093E8012093FD
:1013D000E7010296F0D8182F19A209A10117B8F455
:1013E0008091E7019091E8019C012F5F3F4F30937E
:1013F000E8012093E701DFD8E1E0F0E0EC0FFD1F0A
:10140000E00FF11D808389A18F5F89A3E6CF612F53
:10141000CE010196A3DB19A289A18430F0F490E0FB
:10142000880F991FFC01E751FE4F20813181211562
:10143000310579F0FC01E75DFC4F80819181281B2B
:10144000390B38A32F8FBE01615E7F4FCE0181968D
:10145000EDDC89A18F5F89A3DFCF8091E7019091B7
:10146000E8019C012E5F3F4F2115324080F088E05B
:1014700090E09093E8018093E701809128038F5FCB
:10148000809328039091BA00911115C01AC093D887
:10149000811117C08091E7019091E80101968BD8E6
:1014A00081110FC08091E7019091E801029683D8E5
:1014B0008823E9F206C0891720F0109228031092C1
:1014C000FB0119A2EE24E394F12CE9A1E43008F029
:1014D000ECC0F0E0EE0FFF1FE75DFC4F80819181D3
:1014E00098A38F8F60E070E0E9A1F0E09F01220FE8
:1014F000331FD901A75DBC4F8D919C914F8D58A191
:10150000D901AD50BE4F2D913C91280F391F421784
:10151000530708F0B4C09A01220F331FF901E40FFA
:10152000F51FDF01A354BF4F8C9184FF20C00091B1
:10153000600010916100E554FF4F908192959F707B
:10154000F70102C0EE0FFF1F9A95E2F70E231F234B
:1015500085FF05C0012B59F48F7D8C9305C0012BAD
:1015600031F0982F90629C93BA016F5F7F4FC90151
:10157000840F951FFC01E354FF4F208123FF79C0A6
:10158000FC01E554FF4F20812F7080916000909105
:10159000610002C0880F991F2A95E2F781159048D3
:1015A00009F067C0C12C6F8D78A1CD1409F45FC01C
:1015B000CB01880F991F860F971FFC01E554FF4F41
:1015C000218121110AC02081207F2083FC01E35466
:1015D000FF4F8081877F80834AC0322F36953695B2
:1015E00036953BA327702AA3FC01EC5CFC4F8E01CF
:1015F0000E5D1F4F9E012D5D3F4FAE01415E5F4F5F
:10160000618180E0D1DD8F8D98A1FC01EE0FFF1F7D
:101610008E0F9F1FFC01EC5CFC4F9E012D5D3F4F28
:10162000AE01415E5F4F608180E0FEDD8F8D98A14D
:10163000FC01EE0FFF1F8E0F9F1FFC01EC5CFC4FA7
:101640009E012D5D3F4FAE01415E5F4F628180E0A4
:101650002BDEEF8DF8A1CF01880F991FE80FF91F3E
:10166000E554FF4F81818F5F8183C3949CCF6F5F6F
:101670007F4F8F8D98A1019698A38F8F35CF6115DD
:10168000710579F0A70101C0440FEA95EAF7681BDC
:10169000790B9C01220F331F820F931F84509E4FA2
:1016A00046D889A18F5F89A310CFA3960FB6F8946F
:1016B000DEBF0FBECDBFDF91CF911F910F91FF9085
:1016C000EF90DF90CF90089599D536D87AD7FECF96
:1016D00070CB78CB0FCC28CE70D088F09F5790F08D
:1016E000B92F9927B751A0F0D1F0660F771F881F47
:1016F000991F1AF0BA95C9F712C0B13081F077D0AE
:10170000B1E0089574C0672F782F8827B85F39F04B
:10171000B93FCCF3869577956795B395D9F73EF4A5
:1017200090958095709561957F4F8F4F9F4F08954D
:10173000E89409C097FB3EF490958095709561956B
:101740007F4F8F4F9F4F9923A9F0F92F96E9BB2721
:101750009395F695879577956795B795F111F8CF9D
:10176000FAF4BB0F11F460FF1BC06F5F7F4F8F4F08
:101770009F4F16C0882311F096E911C0772321F0FE
:101780009EE8872F762F05C0662371F096E8862F96
:1017900070E060E02AF09A95660F771F881FDAF7ED
:1017A000880F9695879597F9089557FD9058440F9F
:1017B000551F59F05F3F71F04795880F97FB991FB0
:1017C00061F09F3F79F0879508951216130614066D
:1017D000551FF2CF4695F1DF08C0161617061806FA
:1017E000991FF1CF86957105610508940895E894D5
:1017F000BB2766277727CB0197F908950BD078C0D0
:1018000069D028F06ED018F0952309F05AC05FC057
:101810001124EECFCADFA0F3959FD1F3950F50E0CE
:10182000551F629FF001729FBB27F00DB11D639F92
:10183000AA27F00DB11DAA1F649F6627B00DA11D38
:10184000661F829F2227B00DA11D621F739FB00DDE
:10185000A11D621F839FA00D611D221F749F33274E
:10186000A00D611D231F849F600D211D822F762FE7
:101870006A2F11249F5750408AF0E1F088234AF0E4
:10188000EE0FFF1FBB1F661F771F881F9150504030
:10189000A9F79E3F510570F014C0AACF5F3FECF34B
:1018A000983EDCF3869577956795B795F795E7951C
:1018B0009F5FC1F7FE2B880F911D9695879597F92D
:1018C000089597F99F6780E870E060E008959FEFC2
:1018D00080EC089500240A941616170618060906C7
:1018E000089500240A941216130614060506089596
:1018F000092E0394000C11F4882352F0BB0F40F41E
:10190000BF2B11F460FF04C06F5F7F4F8F4F9F4F5D
:101910000895A1E21A2EAA1BBB1BFD010DC0AA1F30
:10192000BB1FEE1FFF1FA217B307E407F50720F048
:10193000A21BB30BE40BF50B661F771F881F991FC3
:101940001A9469F760957095809590959B01AC010C
:10195000BD01CF010895052E97FB16F400940FD01A
:1019600057FD05D0D6DF07FC02D046F408C05095DD
:101970004095309521953F4F4F4F5F4F089590957B
:101980008095709561957F4F8F4F9F4F0895E19996
:10199000FECF9FBB8EBBE09A99278DB30895262F6B
:1019A000E199FECF9FBB8EBBE09A01970DB2021664
:1019B00031F02DBB0FB6F894E29AE19A0FBE08956C
:1019C000262FE199FECF9FBB8EBB2DBB0FB6F8949F
:0E19D000E29AE19A0FBE01960895F894FFCFB7
:00000001FF
